:1000000012C02BC02AC029C028C027C026C025C0C6
:1000100024C023C022C021C020C01FC01EC01DC0DC
:100020001CC01BC01AC011241FBECFE5D4E0DEBF28
:10003000CDBF10E0A0E6B0E0E0E3FFE002C0059035
:100040000D92AC3FB107D9F711E0ACEFB0E001C0C1
:100050001D92AB30B107E1F701C0D2CFCF93DF9350
:10006000CDB7DEB721970FB6F894DEBF0FBECDBF78
:100070008CE390E0909301018093000184E690E08E
:100080009093FD008093FC00E7E3F0E081EF808334
:10009000E1E3F0E080EE8083E8E3F0E086E0808357
:1000A00084EF91E05DD2DAD088EC90E059D2E5D2CD
:1000B00080E690E061E002D281E790E062E0FED16C
:1000C00000C0E7E2F0E085EE8083E6E2F0E087EC56
:1000D0008083E6E2F0E0808199278071907000973C
:1000E000C1F3E5E2F0E0808199279093FF008093CF
:1000F000FE00A6E2B0E0E6E2F0E0808180618C9351
:100100008091FE009091FF009F938F9382E890E092
:100110009F938F9382E091E09F938F93B8D38DB795
:100120009EB706960FB6F8949EBF0FBE8DBF87E8A8
:1001300090E061E0C3D18091030103D1809104017B
:1001400000D18FEDFED083E4FCD080E2FAD0E7E26C
:10015000F0E084EE8083E6E2F0E087EC8083E6E284
:10016000F0E080819927807190700097C1F3E5E2FB
:10017000F0E0808199279093090180930801A6E21D
:10018000B0E0E6E2F0E0808180618C93809108012C
:10019000909109019F938F9382E890E09F938F93B2
:1001A00082E091E09F938F9372D38DB79EB70696AE
:1001B0000FB6F8949EBF0FBE8DBF84E990E062E059
:1001C0007DD180910201BDD080910301BAD0809190
:1001D0000401B7D080E5B5D080E5B3D08DE4B1D0CF
:1001E00080E2AFD02091FE003091FF0080910001AD
:1001F00090910101821793075CF0209108013091E2
:1002000009018091FC009091FD0082179307B4F4DE
:100210008981882309F055CF5ED281E08983A8E3E4
:10022000B0E0E8E3F0E080818F7D8C93A8E3B0E05C
:10023000E8E3F0E0808180618C9343CF1982A8E3EA
:10024000B0E0E8E3F0E0808180628C93A8E3B0E066
:10025000E8E3F0E080818F7E8C9333CFCF93DF9300
:10026000CDB7DEB761970FB6F894DEBF0FBECDBF36
:10027000CE0103969E878D87EBE9F0E0F88BEF8740
:10028000FAE0F98BEF85F88900808F8598890196CF
:10029000988B8F87ED85FE8500828D859E850196E2
:1002A0009E878D8799899150998BE989EE2351F723
:1002B000A8E3B0E0E8E3F0E080818E7F8C931A82BF
:1002C00019820EC029813A81CE010396FC01E20F0A
:1002D000F31F808136D089819A8101969A83898320
:1002E00089819A818A3091056CF3A8E3B0E0E8E354
:1002F000F0E0808181608C9361960FB6F894DEBF48
:100300000FBECDBFDF91CF910895CF93DF93CDB7CF
:10031000DEB7A2E3B0E0E2E3F0E0808180688C9396
:1003200081E090E01DD1A2E3B0E0E2E3F0E0908153
:100330008FE789238C9381E090E012D1DF91CF91F8
:100340000895CF93DF93CDB7DEB722970FB6F89419
:10035000DEBF0FBECDBF8A838A81898390EF8981FA
:100360008923898389818595859585958595898357
:10037000A2E3B0E0E2E3F0E090818FE989238C937F
:10038000A8E3B0E0E8E3F0E080818F738C9389818B
:10039000992787FD909581709070882339F0A2E3AA
:1003A000B0E0E2E3F0E0808180648C93898199275A
:1003B00087FD909582709070009739F0A2E3B0E0CD
:1003C000E2E3F0E0808180628C938981992787FD48
:1003D000909584709070009739F0A8E3B0E0E8E35E
:1003E000F0E0808180688C938981992787FD9095C2
:1003F00088709070009739F0A8E3B0E0E8E3F0E08F
:10040000808180648C9381DF8A81898389818F7068
:100410008983A2E3B0E0E2E3F0E090818FE98923F1
:100420008C93A8E3B0E0E8E3F0E080818F738C93D5
:100430008981992787FD909581709070882339F084
:10044000A2E3B0E0E2E3F0E0808180648C938981F4
:10045000992787FD909582709070009739F0A2E3FC
:10046000B0E0E2E3F0E0808180628C93898199279B
:1004700087FD909584709070009739F0A8E3B0E004
:10048000E8E3F0E0808180688C938981992787FD7B
:10049000909588709070009739F0A8E3B0E0E8E399
:1004A000F0E0808180648C9330DF22960FB6F89460
:1004B000DEBF0FBECDBFDF91CF910895CF93DF9305
:1004C000CDB7DEB727970FB6F894DEBF0FBECDBF0E
:1004D0009E838D836F83A8E3B0E0E8E3F0E0808142
:1004E0008E7F8C938F81813019F480E82ADF02C0DF
:1004F00080EC27DFA8E3B0E0E8E3F0E080818160F2
:100500008C938D819E81DC01FD0101900020E9F733
:100510003197CF018A1B9B0B9C838B831A82198294
:100520000FC089819A819C018D819E81F901E80F1C
:10053000F91F808106DF89819A8101969A838983D8
:1005400029813A818B819C812817390754F327969A
:100550000FB6F894DEBF0FBECDBFDF91CF910895E7
:10056000CF93DF93CDB7DEB726970FB6F894DEBFF3
:100570000FBECDBF9E838D831C821B8213C01A8247
:10058000198206C0000089819A8101969A83898325
:1005900089819A818E319105A8F38B819C81019686
:1005A0009C838B832B813C818D819E812817390709
:1005B00030F326960FB6F894DEBF0FBECDBFDF91A5
:1005C000CF910895CF93DF93CDB7DEB721970FB6C4
:1005D000F894DEBF0FBECDBF8983ECE2F0E08981E5
:1005E0008083EBE2F0E08081992780729070009721
:1005F000C1F321960FB6F894DEBF0FBECDBFDF91D9
:10060000CF910895CF93DF93CDB7DEB726970FB67E
:10061000F894DEBF0FBECDBF9E838D838D819E81FA
:10062000DC01FD0101900020E9F73197CF018A1B21
:100630009B0B9C838B831A8219820FC089819A81BC
:100640009C018D819E81F901E80FF91F8081BADF3D
:1006500089819A8101969A83898329813A818B8144
:100660009C812817390754F326960FB6F894DEBFFD
:100670000FBECDBFDF91CF910895CF93DF93CDB75C
:10068000DEB7E0E4F0E01082E9E2F0E08CE08083A5
:10069000ABE2B0E0EBE2F0E0808182608C93EAE2D2
:1006A000F0E088E18083E0E4F0E08EE88083DF9191
:1006B000CF910895CF93DF93CDB7DEB7EBE2F0E0B3
:1006C00080818823DCF7ECE2F0E0808180930A01EE
:1006D000DF91CF910895CF93DF93CDB7DEB785EA51
:1006E00090E090DF8DE06EDF8AE06CDF88EE93E0D3
:1006F00037DF8FEA90E086DF8DE064DF8AE062DF3B
:1007000088EE93E02DDF89EB90E07CDF82E25ADF18
:1007100082EC90E077DF82E255DF8DE053DF8AE004
:1007200051DF88EE93E01CDF80ED90E06BDF8DE021
:1007300049DF8AE047DF88EE93E012DF87E890E048
:1007400061DFE7E2F0E085EE8083E6E2F0E087EC4F
:100750008083E6E2F0E080819927807190700097B5
:10076000C1F3E5E2F0E0808199279093FF00809348
:10077000FE00A6E2B0E0E6E2F0E0808180618C93CA
:100780008091FE009091FF009F938F9382E890E00C
:100790009F938F9382E091E09F938F9378D08DB752
:1007A0009EB706960FB6F8949EBF0FBE8DBF809180
:1007B000030108DF8091040105DF83E403DF8DE09E
:1007C00001DF8AE0FFDE85EE90E01CDFE7E2F0E08B
:1007D00084EE8083E6E2F0E087EC8083E6E2F0E0FE
:1007E00080819927807190700097C1F3E5E2F0E075
:1007F000808199279093090180930801A6E2B0E0D7
:10080000E6E2F0E0808180618C9380910801909114
:1008100009019F938F9382E890E09F938F9382E0EA
:1008200091E09F938F9333D08DB79EB706960FB606
:10083000F8949EBF0FBE8DBF80910201C3DE8091F0
:100840000301C0DE80910401BDDE80E5BBDE80E5F2
:10085000B9DE8DE4B7DE8DE0B5DE8AE0B3DE88EE8A
:1008600093E07EDE8AE1AEDE88EE93E079DE88EE0C
:1008700093E076DE82EF90E0C5DE8DE0A3DE8AE0D5
:10088000A1DE88EE93E06CDEDF91CF910895A0E1C8
:10089000B0E0ECE4F4E023C30F89188D86E08E838A
:1008A0001C830B838FEF9FE798878F83AE01455E94
:1008B0005F4F5A834983698D7A8DCE01039609D0A3
:1008C00029853A85020F131FF8011082E4E0609633
:1008D00022C3A4E1B0E0EEE6F4E0F3C2CC24DD24D0
:1008E00076011C017C8B6B8B2A01FC01178216821E
:1008F000838181FD03C08FEF9FEF72C2AA24BB24C6
:100900005CC2A0FE42C28A8980538A30E8F4FA8928
:10091000F03341F42D85222329F4A3FC03C080E0A9
:1009200091E06FC08AE0ED85E802C0011124FA89E8
:10093000F80FF053FD87F7FF02C02FE72D87A3FCC8
:1009400036C23D853E8733C2C50188709070A3FED4
:1009500005C0ED85EE2311F4F1E0FD872A892836E4
:1009600024F525360CF05BC0233509F47FC024350F
:100970008CF42B32C1F12C3234F42032C1F1233209
:1009800009F0F9C13CC03A893D32B1F13E3209F07B
:10099000F2C13AC08A89833609F449C084360CF022
:1009A0007EC0883509F0E7C11BC0EA89E03709F449
:1009B000A0C0E13744F4EC3669F1EF3671F0E93666
:1009C00009F0D9C16CC0FA89F53709F49AC0F83733
:1009D00039F0F33709F0CFC134C028E0298B91C03A
:1009E00030E1398B8EC080E190E0A82AB92AE0E29C
:1009F000F0E0AE2ABF2ADBC120E830E00DC080E481
:100A000090E0A82AB92AD3C1E8E0F0E0AE2ABF2AD4
:100A10001D86CDC124E030E0A22AB32AC8C13FE33D
:100A2000C32E3E8531503E8783E68A8B36C1F20164
:100A3000C080FE85F150FE8722E030E0420E531E5A
:100A40002CC1F201C080D180892B41F0FD856F2F30
:100A5000772767FD7095C601DAD117C0F6010190BE
:100A60000020E9F73197EC19E98B10C0F201C08042
:100A7000D180892B41F0FD856F2F772767FD709519
:100A8000C601BAD102C0C601AED1898B22E030E0E6
:100A9000420E531E3E858989381B3E87FEC0A2FE4A
:100AA00008C0F20180819181A281B38124E030E00D
:100AB00009C0F20180819181AA2797FDA095BA2FE4
:100AC00022E030E0420E531E6C017D01B7FF0CC0E6
:100AD00082E090E0A82AB92AF094E094D094C094DF
:100AE000C11CD11CE11CF11CEFEBFFEFAE22BF22B9
:100AF00021C020E430E0A22AB32A38E73A8B80E113
:100B0000898BA2FE08C0F20180819181A281B3810C
:100B100024E030E007C0F20180819181AA27BB2741
:100B200022E030E0420E531E6C017D018FEC9FEFFE
:100B3000A822B92287017601FE013196F88BEF8752
:100B4000F9896F2E772488249924C801B701A4015C
:100B5000930195D16A3024F02A89620F615201C055
:100B6000605DEF85F8896193F88BEF87C801B70165
:100B7000A401930184D179018A0121153105410530
:100B8000510519F7CC24DD247601CE010196CF84DE
:100B9000C81AC50182739070892B19F0FE85F15037
:100BA000FE87A6FE09C02989203111F482E001C028
:100BB00081E03E85381B3E8728E0822E912C8A20DA
:100BC0009B20A3FE18C08D85282F332727FD309545
:100BD0008C2D9927821793073CF0E7EFFFEFAE22A9
:100BE000BF228824992407C0FD85FC19FD872E8526
:100BF0002F1B2E8703C03E853C193E87C501807898
:100C00009170892B61F48E8505C0B10180E290E07E
:100C100009D1812F182F11501816BCF31E87A1FE81
:100C200004C0B1018DE290E00BC0A4FE04C0B1018C
:100C30008BE290E005C0A5FE04C0B10180E290E027
:100C4000F1D0A6FE0EC0B10180E390E0EBD089891F
:100C5000803139F4B101EA898E2F992787FD90956B
:100C6000E1D0B0FE0CC08E8505C0B10180E390E0FC
:100C7000D9D0812F182F11501816BCF31E87892840
:100C800061F02D8505C0B10180E390E0CBD0212F2C
:100C9000122F11501216BCF31D8790E8692E712C8B
:100CA0006A207B20A7FC0CC08E8505C0B10180E2C4
:100CB00090E0B8D0812F182F11501816BCF31E8762
:100CC000FA89F33639F4B1018C2D992787FD909577
:100CD000A9D042C02A892337A9F4460156011989AF
:100CE00008C0F50181915F01B101992787FD9095B9
:100CF00099D01150B0F76401F989CF0ED11C2FEFB4
:100D0000298B2AC03A89333519F00F8518891DC0FF
:100D100046018601B98807C0F8018491B10199277D
:100D200081D00F5F1F4FBA94FFEFBF16A9F7640180
:100D30002989C20ED11CF98B0FC0F80182918F0155
:100D4000B101992787FD90956DD0CE0101960817C6
:100D5000190799F7188B0F876728A1F08E8505C0B2
:100D6000B10180E290E05ED0812F182F115018164B
:100D7000BCF31E8707C0B101FA898F2F992787FD21
:100D8000909550D0AA24BB2412C02A89253241F460
:100D90003AE0398B1E861D8681E0A82EB12C07C053
:100DA000B101EA898E2F992787FD90953BD02B8939
:100DB0003C892F5F3F4F3C8B2B8BF101838183FF5D
:100DC00004C0EB89FC89F49103C0EB89FC89F081B4
:100DD000FA8B2A89222309F094CDF101868197812B
:100DE000E2E164968AC0FC0105900020E9F7809555
:100DF00090958E0F9F1F0895FC01059061507040E3
:100E00000110D8F7809590958E0F9F1F0895FC01D3
:100E10006150704001900110D8F7809590958E0F29
:100E20009F1F08950F931F93CF93DF938C01EB01C6
:100E30008B81992781FF1BC082FF0DC02E813F81CE
:100E40008C819D812817390764F4E881F981019329
:100E5000F983E88306C0E885F985802F0995892BF9
:100E600031F48E819F8101969F838E8302C00FEFA4
:100E70001FEFC801DF91CF911F910F910895A1E25B
:100E80001A2EAA1BBB1BFD010DC0AA1FBB1FEE1F04
:100E9000FF1FA217B307E407F50720F0A21BB30B4F
:100EA000E40BF50B661F771F881F991F1A9469F7CB
:100EB00060957095809590959B01AC01BD01CF0127
:100EC00008952F923F924F925F926F927F928F92EE
:100ED0009F92AF92BF92CF92DF92EF92FF920F93C9
:100EE0001F93CF93DF93CDB7DEB7CA1BDB0B0FB6D3
:100EF000F894DEBF0FBECDBF09942A883988488890
:100F00005F846E847D848C849B84AA84B984C88425
:100F1000DF80EE80FD800C811B81AA81B981CE0F1C
:100F2000D11D0FB6F894DEBF0FBECDBFED01089501
:100F300054656D70657261747572653A3332204321
:100F400000536D6F6B653A35352050504D20202091
:100F50002000253033640054656D706572617475CE
:100F600072653A00536D6F6B653A004303030228C4
:100F7000010C06020241542B434D47443D310041D0
:100F8000542B434D47463D310041542B434D475769
:100F90003D002B393139383132333435363738006A
:100FA000416C6572743A20466972652044657465C7
:100FB0006374656400536D6F6B65204C6576656C7A
:0C0FC0003A0041542B434D53533D310087
:00000001FF
